{
	"contracts/w1_paynow.sol": {
		"Weixin": {
			"abi": [
				{
					"inputs": [],
					"stateMutability": "nonpayable",
					"type": "constructor"
				},
				{
					"inputs": [
						{
							"internalType": "address",
							"name": "_sender",
							"type": "address"
						},
						{
							"internalType": "address",
							"name": "_receiver",
							"type": "address"
						},
						{
							"internalType": "uint256",
							"name": "_amount",
							"type": "uint256"
						}
					],
					"name": "transferMoney",
					"outputs": [],
					"stateMutability": "nonpayable",
					"type": "function"
				},
				{
					"inputs": [],
					"name": "view_money",
					"outputs": [
						{
							"internalType": "address",
							"name": "",
							"type": "address"
						},
						{
							"internalType": "address",
							"name": "",
							"type": "address"
						},
						{
							"internalType": "uint256",
							"name": "",
							"type": "uint256"
						}
					],
					"stateMutability": "view",
					"type": "function"
				}
			],
			"devdoc": {
				"kind": "dev",
				"methods": {},
				"version": 1
			},
			"evm": {
				"assembly": "    /* \"contracts/w1_paynow.sol\":88:618  contract Weixin {  ... */\n  mstore(0x40, 0x80)\n    /* \"contracts/w1_paynow.sol\":196:274  constructor() {... */\n  callvalue\n  dup1\n  iszero\n  tag_1\n  jumpi\n  revert(0x00, 0x00)\ntag_1:\n  pop\n    /* \"contracts/w1_paynow.sol\":228:238  msg.sender */\n  caller\n    /* \"contracts/w1_paynow.sol\":220:225  owner */\n  0x03\n  0x00\n    /* \"contracts/w1_paynow.sol\":220:238  owner = msg.sender */\n  0x0100\n  exp\n  dup2\n  sload\n  dup2\n  0xffffffffffffffffffffffffffffffffffffffff\n  mul\n  not\n  and\n  swap1\n  dup4\n  0xffffffffffffffffffffffffffffffffffffffff\n  and\n  mul\n  or\n  swap1\n  sstore\n  pop\n    /* \"contracts/w1_paynow.sol\":248:266  console.log(owner) */\n  tag_4\n    /* \"contracts/w1_paynow.sol\":260:265  owner */\n  0x03\n  0x00\n  swap1\n  sload\n  swap1\n  0x0100\n  exp\n  swap1\n  div\n  0xffffffffffffffffffffffffffffffffffffffff\n  and\n    /* \"contracts/w1_paynow.sol\":248:259  console.log */\n  shl(0x20, tag_5)\n    /* \"contracts/w1_paynow.sol\":248:266  console.log(owner) */\n  0x20\n  shr\n  jump\t// in\ntag_4:\n    /* \"contracts/w1_paynow.sol\":88:618  contract Weixin {  ... */\n  jump(tag_6)\n    /* \"hardhat/console.sol\":6313:6429  function log(address p0) internal pure {... */\ntag_5:\n    /* \"hardhat/console.sol\":6362:6422  _sendLogPayload(abi.encodeWithSignature(\"log(address)\", p0)) */\n  tag_8\n    /* \"hardhat/console.sol\":6418:6420  p0 */\n  dup2\n    /* \"hardhat/console.sol\":6378:6421  abi.encodeWithSignature(\"log(address)\", p0) */\n  add(0x24, mload(0x40))\n  tag_9\n  swap2\n  swap1\n  tag_10\n  jump\t// in\ntag_9:\n  mload(0x40)\n  0x20\n  dup2\n  dup4\n  sub\n  sub\n  dup2\n  mstore\n  swap1\n  0x40\n  mstore\n  and(not(0xffffffffffffffffffffffffffffffffffffffffffffffffffffffff), 0x2c2ecbc200000000000000000000000000000000000000000000000000000000)\n  0x20\n  dup3\n  add\n  dup1\n  mload\n  0xffffffffffffffffffffffffffffffffffffffffffffffffffffffff\n  dup4\n  dup2\n  dup4\n  and\n  or\n  dup4\n  mstore\n  pop\n  pop\n  pop\n  pop\n    /* \"hardhat/console.sol\":6362:6377  _sendLogPayload */\n  shl(0x20, tag_11)\n    /* \"hardhat/console.sol\":6362:6422  _sendLogPayload(abi.encodeWithSignature(\"log(address)\", p0)) */\n  0x20\n  shr\n  jump\t// in\ntag_8:\n    /* \"hardhat/console.sol\":6313:6429  function log(address p0) internal pure {... */\n  pop\n  jump\t// out\n    /* \"hardhat/console.sol\":851:980  function _sendLogPayload(bytes memory payload) internal pure {... */\ntag_11:\n    /* \"hardhat/console.sol\":922:973  _castToPure(_sendLogPayloadImplementation)(payload) */\n  tag_13\n    /* \"hardhat/console.sol\":965:972  payload */\n  dup2\n    /* \"hardhat/console.sol\":922:964  _castToPure(_sendLogPayloadImplementation) */\n  tag_14\n    /* \"hardhat/console.sol\":934:963  _sendLogPayloadImplementation */\n  or(tag_0_13, shl(0x20, tag_15))\n    /* \"hardhat/console.sol\":922:933  _castToPure */\n  shl(0x20, tag_16)\n    /* \"hardhat/console.sol\":922:964  _castToPure(_sendLogPayloadImplementation) */\n  0x20\n  shr\n  jump\t// in\ntag_14:\n    /* \"hardhat/console.sol\":922:973  _castToPure(_sendLogPayloadImplementation)(payload) */\n  0x20\n  shr\n  jump\t// in\ntag_13:\n    /* \"hardhat/console.sol\":851:980  function _sendLogPayload(bytes memory payload) internal pure {... */\n  pop\n  jump\t// out\n    /* \"hardhat/console.sol\":180:643  function _sendLogPayloadImplementation(bytes memory payload) internal view {... */\ntag_15:\n    /* \"hardhat/console.sol\":265:287  address consoleAddress */\n  0x00\n    /* \"hardhat/console.sol\":131:173  0x000000000000000000636F6e736F6c652e6c6f67 */\n  0x636f6e736f6c652e6c6f67\n    /* \"hardhat/console.sol\":265:305  address consoleAddress = CONSOLE_ADDRESS */\n  swap1\n  pop\n    /* \"hardhat/console.sol\":594:595  0 */\n  0x00\n    /* \"hardhat/console.sol\":571:572  0 */\n  0x00\n    /* \"hardhat/console.sol\":541:548  payload */\n  dup4\n    /* \"hardhat/console.sol\":535:549  mload(payload) */\n  mload\n    /* \"hardhat/console.sol\":510:512  32 */\n  0x20\n    /* \"hardhat/console.sol\":501:508  payload */\n  dup6\n    /* \"hardhat/console.sol\":497:513  add(payload, 32) */\n  add\n    /* \"hardhat/console.sol\":461:475  consoleAddress */\n  dup5\n    /* \"hardhat/console.sol\":434:439  gas() */\n  gas\n    /* \"hardhat/console.sol\":402:613  staticcall(... */\n  staticcall\n    /* \"hardhat/console.sol\":381:627  pop(... */\n  pop\n    /* \"hardhat/console.sol\":367:637  {... */\n  pop\n    /* \"hardhat/console.sol\":180:643  function _sendLogPayloadImplementation(bytes memory payload) internal view {... */\n  pop\n  jump\t// out\n    /* \"hardhat/console.sol\":649:845  function _castToPure(... */\ntag_16:\n    /* \"hardhat/console.sol\":748:781  function(bytes memory) pure fnOut */\n  or(tag_0_14, shl(0x20, tag_18))\n    /* \"hardhat/console.sol\":825:829  fnIn */\n  dup2\n    /* \"hardhat/console.sol\":816:829  fnOut := fnIn */\n  swap1\n  pop\n    /* \"hardhat/console.sol\":649:845  function _castToPure(... */\n  swap2\n  swap1\n  pop\n  jump\t// out\n    /* \"contracts/w1_paynow.sol\":88:618  contract Weixin {  ... */\ntag_18:\n  tag_20\n  tag_21\n  jump\t// in\ntag_20:\n  jump\t// out\n    /* \"#utility.yul\":7:133   */\ntag_22:\n    /* \"#utility.yul\":44:51   */\n  0x00\n    /* \"#utility.yul\":84:126   */\n  0xffffffffffffffffffffffffffffffffffffffff\n    /* \"#utility.yul\":77:82   */\n  dup3\n    /* \"#utility.yul\":73:127   */\n  and\n    /* \"#utility.yul\":62:127   */\n  swap1\n  pop\n    /* \"#utility.yul\":7:133   */\n  swap2\n  swap1\n  pop\n  jump\t// out\n    /* \"#utility.yul\":139:235   */\ntag_23:\n    /* \"#utility.yul\":176:183   */\n  0x00\n    /* \"#utility.yul\":205:229   */\n  tag_28\n    /* \"#utility.yul\":223:228   */\n  dup3\n    /* \"#utility.yul\":205:229   */\n  tag_22\n  jump\t// in\ntag_28:\n    /* \"#utility.yul\":194:229   */\n  swap1\n  pop\n    /* \"#utility.yul\":139:235   */\n  swap2\n  swap1\n  pop\n  jump\t// out\n    /* \"#utility.yul\":241:359   */\ntag_24:\n    /* \"#utility.yul\":328:352   */\n  tag_30\n    /* \"#utility.yul\":346:351   */\n  dup2\n    /* \"#utility.yul\":328:352   */\n  tag_23\n  jump\t// in\ntag_30:\n    /* \"#utility.yul\":323:326   */\n  dup3\n    /* \"#utility.yul\":316:353   */\n  mstore\n    /* \"#utility.yul\":241:359   */\n  pop\n  pop\n  jump\t// out\n    /* \"#utility.yul\":365:587   */\ntag_10:\n    /* \"#utility.yul\":458:462   */\n  0x00\n    /* \"#utility.yul\":496:498   */\n  0x20\n    /* \"#utility.yul\":485:494   */\n  dup3\n    /* \"#utility.yul\":481:499   */\n  add\n    /* \"#utility.yul\":473:499   */\n  swap1\n  pop\n    /* \"#utility.yul\":509:580   */\n  tag_32\n    /* \"#utility.yul\":577:578   */\n  0x00\n    /* \"#utility.yul\":566:575   */\n  dup4\n    /* \"#utility.yul\":562:579   */\n  add\n    /* \"#utility.yul\":553:559   */\n  dup5\n    /* \"#utility.yul\":509:580   */\n  tag_24\n  jump\t// in\ntag_32:\n    /* \"#utility.yul\":365:587   */\n  swap3\n  swap2\n  pop\n  pop\n  jump\t// out\n    /* \"#utility.yul\":593:773   */\ntag_21:\n    /* \"#utility.yul\":641:718   */\n  0x4e487b7100000000000000000000000000000000000000000000000000000000\n    /* \"#utility.yul\":638:639   */\n  0x00\n    /* \"#utility.yul\":631:719   */\n  mstore\n    /* \"#utility.yul\":738:742   */\n  0x51\n    /* \"#utility.yul\":735:736   */\n  0x04\n    /* \"#utility.yul\":728:743   */\n  mstore\n    /* \"#utility.yul\":762:766   */\n  0x24\n    /* \"#utility.yul\":759:760   */\n  0x00\n    /* \"#utility.yul\":752:767   */\n  revert\n    /* \"contracts/w1_paynow.sol\":88:618  contract Weixin {  ... */\ntag_6:\n  dataSize(sub_0)\n  dup1\n  dataOffset(sub_0)\n  0x00\n  codecopy\n  0x00\n  return\nstop\n\nsub_0: assembly {\n        /* \"contracts/w1_paynow.sol\":88:618  contract Weixin {  ... */\n      mstore(0x40, 0x80)\n      callvalue\n      dup1\n      iszero\n      tag_1\n      jumpi\n      revert(0x00, 0x00)\n    tag_1:\n      pop\n      jumpi(tag_2, lt(calldatasize, 0x04))\n      shr(0xe0, calldataload(0x00))\n      dup1\n      0x31d66a83\n      eq\n      tag_3\n      jumpi\n      dup1\n      0x6410381c\n      eq\n      tag_4\n      jumpi\n    tag_2:\n      revert(0x00, 0x00)\n        /* \"contracts/w1_paynow.sol\":505:616  function view_money() public view returns (address,address,uint){... */\n    tag_3:\n      tag_5\n      tag_6\n      jump\t// in\n    tag_5:\n      mload(0x40)\n      tag_7\n      swap4\n      swap3\n      swap2\n      swap1\n      tag_8\n      jump\t// in\n    tag_7:\n      mload(0x40)\n      dup1\n      swap2\n      sub\n      swap1\n      return\n        /* \"contracts/w1_paynow.sol\":280:499  function transferMoney(address _sender, address _receiver, uint _amount) public {... */\n    tag_4:\n      tag_9\n      0x04\n      dup1\n      calldatasize\n      sub\n      dup2\n      add\n      swap1\n      tag_10\n      swap2\n      swap1\n      tag_11\n      jump\t// in\n    tag_10:\n      tag_12\n      jump\t// in\n    tag_9:\n      stop\n        /* \"contracts/w1_paynow.sol\":505:616  function view_money() public view returns (address,address,uint){... */\n    tag_6:\n        /* \"contracts/w1_paynow.sol\":548:555  address */\n      0x00\n        /* \"contracts/w1_paynow.sol\":556:563  address */\n      0x00\n        /* \"contracts/w1_paynow.sol\":564:568  uint */\n      0x00\n        /* \"contracts/w1_paynow.sol\":586:592  sender */\n      0x01\n      0x00\n      swap1\n      sload\n      swap1\n      0x0100\n      exp\n      swap1\n      div\n      0xffffffffffffffffffffffffffffffffffffffff\n      and\n        /* \"contracts/w1_paynow.sol\":593:601  receiver */\n      0x02\n      0x00\n      swap1\n      sload\n      swap1\n      0x0100\n      exp\n      swap1\n      div\n      0xffffffffffffffffffffffffffffffffffffffff\n      and\n        /* \"contracts/w1_paynow.sol\":602:608  amount */\n      sload(0x00)\n        /* \"contracts/w1_paynow.sol\":579:609  return(sender,receiver,amount) */\n      swap3\n      pop\n      swap3\n      pop\n      swap3\n      pop\n        /* \"contracts/w1_paynow.sol\":505:616  function view_money() public view returns (address,address,uint){... */\n      swap1\n      swap2\n      swap3\n      jump\t// out\n        /* \"contracts/w1_paynow.sol\":280:499  function transferMoney(address _sender, address _receiver, uint _amount) public {... */\n    tag_12:\n        /* \"contracts/w1_paynow.sol\":379:386  _sender */\n      dup3\n        /* \"contracts/w1_paynow.sol\":370:376  sender */\n      0x01\n      0x00\n        /* \"contracts/w1_paynow.sol\":370:386  sender = _sender */\n      0x0100\n      exp\n      dup2\n      sload\n      dup2\n      0xffffffffffffffffffffffffffffffffffffffff\n      mul\n      not\n      and\n      swap1\n      dup4\n      0xffffffffffffffffffffffffffffffffffffffff\n      and\n      mul\n      or\n      swap1\n      sstore\n      pop\n        /* \"contracts/w1_paynow.sol\":410:419  _receiver */\n      dup2\n        /* \"contracts/w1_paynow.sol\":399:407  receiver */\n      0x02\n      0x00\n        /* \"contracts/w1_paynow.sol\":399:419  receiver = _receiver */\n      0x0100\n      exp\n      dup2\n      sload\n      dup2\n      0xffffffffffffffffffffffffffffffffffffffff\n      mul\n      not\n      and\n      swap1\n      dup4\n      0xffffffffffffffffffffffffffffffffffffffff\n      and\n      mul\n      or\n      swap1\n      sstore\n      pop\n        /* \"contracts/w1_paynow.sol\":438:445  _amount */\n      dup1\n        /* \"contracts/w1_paynow.sol\":429:435  amount */\n      0x00\n        /* \"contracts/w1_paynow.sol\":429:445  amount = _amount */\n      dup2\n      swap1\n      sstore\n      pop\n        /* \"contracts/w1_paynow.sol\":455:492  console.log(sender, receiver, amount) */\n      tag_17\n        /* \"contracts/w1_paynow.sol\":467:473  sender */\n      0x01\n      0x00\n      swap1\n      sload\n      swap1\n      0x0100\n      exp\n      swap1\n      div\n      0xffffffffffffffffffffffffffffffffffffffff\n      and\n        /* \"contracts/w1_paynow.sol\":475:483  receiver */\n      0x02\n      0x00\n      swap1\n      sload\n      swap1\n      0x0100\n      exp\n      swap1\n      div\n      0xffffffffffffffffffffffffffffffffffffffff\n      and\n        /* \"contracts/w1_paynow.sol\":485:491  amount */\n      sload(0x00)\n        /* \"contracts/w1_paynow.sol\":455:466  console.log */\n      tag_18\n        /* \"contracts/w1_paynow.sol\":455:492  console.log(sender, receiver, amount) */\n      jump\t// in\n    tag_17:\n        /* \"contracts/w1_paynow.sol\":280:499  function transferMoney(address _sender, address _receiver, uint _amount) public {... */\n      pop\n      pop\n      pop\n      jump\t// out\n        /* \"hardhat/console.sol\":180:643  function _sendLogPayloadImplementation(bytes memory payload) internal view {... */\n    tag_13:\n        /* \"hardhat/console.sol\":265:287  address consoleAddress */\n      0x00\n        /* \"hardhat/console.sol\":131:173  0x000000000000000000636F6e736F6c652e6c6f67 */\n      0x636f6e736f6c652e6c6f67\n        /* \"hardhat/console.sol\":265:305  address consoleAddress = CONSOLE_ADDRESS */\n      swap1\n      pop\n        /* \"hardhat/console.sol\":594:595  0 */\n      0x00\n        /* \"hardhat/console.sol\":571:572  0 */\n      0x00\n        /* \"hardhat/console.sol\":541:548  payload */\n      dup4\n        /* \"hardhat/console.sol\":535:549  mload(payload) */\n      mload\n        /* \"hardhat/console.sol\":510:512  32 */\n      0x20\n        /* \"hardhat/console.sol\":501:508  payload */\n      dup6\n        /* \"hardhat/console.sol\":497:513  add(payload, 32) */\n      add\n        /* \"hardhat/console.sol\":461:475  consoleAddress */\n      dup5\n        /* \"hardhat/console.sol\":434:439  gas() */\n      gas\n        /* \"hardhat/console.sol\":402:613  staticcall(... */\n      staticcall\n        /* \"hardhat/console.sol\":381:627  pop(... */\n      pop\n        /* \"hardhat/console.sol\":367:637  {... */\n      pop\n        /* \"hardhat/console.sol\":180:643  function _sendLogPayloadImplementation(bytes memory payload) internal view {... */\n      pop\n      jump\t// out\n        /* \"hardhat/console.sol\":18916:19080  function log(address p0, address p1, uint256 p2) internal pure {... */\n    tag_18:\n        /* \"hardhat/console.sol\":18989:19073  _sendLogPayload(abi.encodeWithSignature(\"log(address,address,uint256)\", p0, p1, p2)) */\n      tag_21\n        /* \"hardhat/console.sol\":19061:19063  p0 */\n      dup4\n        /* \"hardhat/console.sol\":19065:19067  p1 */\n      dup4\n        /* \"hardhat/console.sol\":19069:19071  p2 */\n      dup4\n        /* \"hardhat/console.sol\":19005:19072  abi.encodeWithSignature(\"log(address,address,uint256)\", p0, p1, p2) */\n      add(0x24, mload(0x40))\n      tag_22\n      swap4\n      swap3\n      swap2\n      swap1\n      tag_8\n      jump\t// in\n    tag_22:\n      mload(0x40)\n      0x20\n      dup2\n      dup4\n      sub\n      sub\n      dup2\n      mstore\n      swap1\n      0x40\n      mstore\n      and(not(0xffffffffffffffffffffffffffffffffffffffffffffffffffffffff), 0x17fe618500000000000000000000000000000000000000000000000000000000)\n      0x20\n      dup3\n      add\n      dup1\n      mload\n      0xffffffffffffffffffffffffffffffffffffffffffffffffffffffff\n      dup4\n      dup2\n      dup4\n      and\n      or\n      dup4\n      mstore\n      pop\n      pop\n      pop\n      pop\n        /* \"hardhat/console.sol\":18989:19004  _sendLogPayload */\n      tag_23\n        /* \"hardhat/console.sol\":18989:19073  _sendLogPayload(abi.encodeWithSignature(\"log(address,address,uint256)\", p0, p1, p2)) */\n      jump\t// in\n    tag_21:\n        /* \"hardhat/console.sol\":18916:19080  function log(address p0, address p1, uint256 p2) internal pure {... */\n      pop\n      pop\n      pop\n      jump\t// out\n        /* \"hardhat/console.sol\":851:980  function _sendLogPayload(bytes memory payload) internal pure {... */\n    tag_23:\n        /* \"hardhat/console.sol\":922:973  _castToPure(_sendLogPayloadImplementation)(payload) */\n      tag_25\n        /* \"hardhat/console.sol\":965:972  payload */\n      dup2\n        /* \"hardhat/console.sol\":922:964  _castToPure(_sendLogPayloadImplementation) */\n      tag_26\n        /* \"hardhat/console.sol\":934:963  _sendLogPayloadImplementation */\n      tag_13\n        /* \"hardhat/console.sol\":922:933  _castToPure */\n      tag_27\n        /* \"hardhat/console.sol\":922:964  _castToPure(_sendLogPayloadImplementation) */\n      jump\t// in\n    tag_26:\n        /* \"hardhat/console.sol\":922:973  _castToPure(_sendLogPayloadImplementation)(payload) */\n      0xffffffff\n      and\n      jump\t// in\n    tag_25:\n        /* \"hardhat/console.sol\":851:980  function _sendLogPayload(bytes memory payload) internal pure {... */\n      pop\n      jump\t// out\n        /* \"hardhat/console.sol\":649:845  function _castToPure(... */\n    tag_27:\n        /* \"hardhat/console.sol\":748:781  function(bytes memory) pure fnOut */\n      tag_14\n        /* \"hardhat/console.sol\":825:829  fnIn */\n      dup2\n        /* \"hardhat/console.sol\":816:829  fnOut := fnIn */\n      swap1\n      pop\n        /* \"hardhat/console.sol\":649:845  function _castToPure(... */\n      swap2\n      swap1\n      pop\n      jump\t// out\n    tag_14:\n      tag_29\n      tag_30\n      jump\t// in\n    tag_29:\n      jump\t// out\n        /* \"#utility.yul\":7:133   */\n    tag_31:\n        /* \"#utility.yul\":44:51   */\n      0x00\n        /* \"#utility.yul\":84:126   */\n      0xffffffffffffffffffffffffffffffffffffffff\n        /* \"#utility.yul\":77:82   */\n      dup3\n        /* \"#utility.yul\":73:127   */\n      and\n        /* \"#utility.yul\":62:127   */\n      swap1\n      pop\n        /* \"#utility.yul\":7:133   */\n      swap2\n      swap1\n      pop\n      jump\t// out\n        /* \"#utility.yul\":139:235   */\n    tag_32:\n        /* \"#utility.yul\":176:183   */\n      0x00\n        /* \"#utility.yul\":205:229   */\n      tag_46\n        /* \"#utility.yul\":223:228   */\n      dup3\n        /* \"#utility.yul\":205:229   */\n      tag_31\n      jump\t// in\n    tag_46:\n        /* \"#utility.yul\":194:229   */\n      swap1\n      pop\n        /* \"#utility.yul\":139:235   */\n      swap2\n      swap1\n      pop\n      jump\t// out\n        /* \"#utility.yul\":241:359   */\n    tag_33:\n        /* \"#utility.yul\":328:352   */\n      tag_48\n        /* \"#utility.yul\":346:351   */\n      dup2\n        /* \"#utility.yul\":328:352   */\n      tag_32\n      jump\t// in\n    tag_48:\n        /* \"#utility.yul\":323:326   */\n      dup3\n        /* \"#utility.yul\":316:353   */\n      mstore\n        /* \"#utility.yul\":241:359   */\n      pop\n      pop\n      jump\t// out\n        /* \"#utility.yul\":365:442   */\n    tag_34:\n        /* \"#utility.yul\":402:409   */\n      0x00\n        /* \"#utility.yul\":431:436   */\n      dup2\n        /* \"#utility.yul\":420:436   */\n      swap1\n      pop\n        /* \"#utility.yul\":365:442   */\n      swap2\n      swap1\n      pop\n      jump\t// out\n        /* \"#utility.yul\":448:566   */\n    tag_35:\n        /* \"#utility.yul\":535:559   */\n      tag_51\n        /* \"#utility.yul\":553:558   */\n      dup2\n        /* \"#utility.yul\":535:559   */\n      tag_34\n      jump\t// in\n    tag_51:\n        /* \"#utility.yul\":530:533   */\n      dup3\n        /* \"#utility.yul\":523:560   */\n      mstore\n        /* \"#utility.yul\":448:566   */\n      pop\n      pop\n      jump\t// out\n        /* \"#utility.yul\":572:1014   */\n    tag_8:\n        /* \"#utility.yul\":721:725   */\n      0x00\n        /* \"#utility.yul\":759:761   */\n      0x60\n        /* \"#utility.yul\":748:757   */\n      dup3\n        /* \"#utility.yul\":744:762   */\n      add\n        /* \"#utility.yul\":736:762   */\n      swap1\n      pop\n        /* \"#utility.yul\":772:843   */\n      tag_53\n        /* \"#utility.yul\":840:841   */\n      0x00\n        /* \"#utility.yul\":829:838   */\n      dup4\n        /* \"#utility.yul\":825:842   */\n      add\n        /* \"#utility.yul\":816:822   */\n      dup7\n        /* \"#utility.yul\":772:843   */\n      tag_33\n      jump\t// in\n    tag_53:\n        /* \"#utility.yul\":853:925   */\n      tag_54\n        /* \"#utility.yul\":921:923   */\n      0x20\n        /* \"#utility.yul\":910:919   */\n      dup4\n        /* \"#utility.yul\":906:924   */\n      add\n        /* \"#utility.yul\":897:903   */\n      dup6\n        /* \"#utility.yul\":853:925   */\n      tag_33\n      jump\t// in\n    tag_54:\n        /* \"#utility.yul\":935:1007   */\n      tag_55\n        /* \"#utility.yul\":1003:1005   */\n      0x40\n        /* \"#utility.yul\":992:1001   */\n      dup4\n        /* \"#utility.yul\":988:1006   */\n      add\n        /* \"#utility.yul\":979:985   */\n      dup5\n        /* \"#utility.yul\":935:1007   */\n      tag_35\n      jump\t// in\n    tag_55:\n        /* \"#utility.yul\":572:1014   */\n      swap5\n      swap4\n      pop\n      pop\n      pop\n      pop\n      jump\t// out\n        /* \"#utility.yul\":1101:1218   */\n    tag_37:\n        /* \"#utility.yul\":1210:1211   */\n      0x00\n        /* \"#utility.yul\":1207:1208   */\n      0x00\n        /* \"#utility.yul\":1200:1212   */\n      revert\n        /* \"#utility.yul\":1347:1469   */\n    tag_39:\n        /* \"#utility.yul\":1420:1444   */\n      tag_60\n        /* \"#utility.yul\":1438:1443   */\n      dup2\n        /* \"#utility.yul\":1420:1444   */\n      tag_32\n      jump\t// in\n    tag_60:\n        /* \"#utility.yul\":1413:1418   */\n      dup2\n        /* \"#utility.yul\":1410:1445   */\n      eq\n        /* \"#utility.yul\":1400:1463   */\n      tag_61\n      jumpi\n        /* \"#utility.yul\":1459:1460   */\n      0x00\n        /* \"#utility.yul\":1456:1457   */\n      0x00\n        /* \"#utility.yul\":1449:1461   */\n      revert\n        /* \"#utility.yul\":1400:1463   */\n    tag_61:\n        /* \"#utility.yul\":1347:1469   */\n      pop\n      jump\t// out\n        /* \"#utility.yul\":1475:1614   */\n    tag_40:\n        /* \"#utility.yul\":1521:1526   */\n      0x00\n        /* \"#utility.yul\":1559:1565   */\n      dup2\n        /* \"#utility.yul\":1546:1566   */\n      calldataload\n        /* \"#utility.yul\":1537:1566   */\n      swap1\n      pop\n        /* \"#utility.yul\":1575:1608   */\n      tag_63\n        /* \"#utility.yul\":1602:1607   */\n      dup2\n        /* \"#utility.yul\":1575:1608   */\n      tag_39\n      jump\t// in\n    tag_63:\n        /* \"#utility.yul\":1475:1614   */\n      swap3\n      swap2\n      pop\n      pop\n      jump\t// out\n        /* \"#utility.yul\":1620:1742   */\n    tag_41:\n        /* \"#utility.yul\":1693:1717   */\n      tag_65\n        /* \"#utility.yul\":1711:1716   */\n      dup2\n        /* \"#utility.yul\":1693:1717   */\n      tag_34\n      jump\t// in\n    tag_65:\n        /* \"#utility.yul\":1686:1691   */\n      dup2\n        /* \"#utility.yul\":1683:1718   */\n      eq\n        /* \"#utility.yul\":1673:1736   */\n      tag_66\n      jumpi\n        /* \"#utility.yul\":1732:1733   */\n      0x00\n        /* \"#utility.yul\":1729:1730   */\n      0x00\n        /* \"#utility.yul\":1722:1734   */\n      revert\n        /* \"#utility.yul\":1673:1736   */\n    tag_66:\n        /* \"#utility.yul\":1620:1742   */\n      pop\n      jump\t// out\n        /* \"#utility.yul\":1748:1887   */\n    tag_42:\n        /* \"#utility.yul\":1794:1799   */\n      0x00\n        /* \"#utility.yul\":1832:1838   */\n      dup2\n        /* \"#utility.yul\":1819:1839   */\n      calldataload\n        /* \"#utility.yul\":1810:1839   */\n      swap1\n      pop\n        /* \"#utility.yul\":1848:1881   */\n      tag_68\n        /* \"#utility.yul\":1875:1880   */\n      dup2\n        /* \"#utility.yul\":1848:1881   */\n      tag_41\n      jump\t// in\n    tag_68:\n        /* \"#utility.yul\":1748:1887   */\n      swap3\n      swap2\n      pop\n      pop\n      jump\t// out\n        /* \"#utility.yul\":1893:2512   */\n    tag_11:\n        /* \"#utility.yul\":1970:1976   */\n      0x00\n        /* \"#utility.yul\":1978:1984   */\n      0x00\n        /* \"#utility.yul\":1986:1992   */\n      0x00\n        /* \"#utility.yul\":2035:2037   */\n      0x60\n        /* \"#utility.yul\":2023:2032   */\n      dup5\n        /* \"#utility.yul\":2014:2021   */\n      dup7\n        /* \"#utility.yul\":2010:2033   */\n      sub\n        /* \"#utility.yul\":2006:2038   */\n      slt\n        /* \"#utility.yul\":2003:2122   */\n      iszero\n      tag_70\n      jumpi\n        /* \"#utility.yul\":2041:2120   */\n      tag_71\n      tag_37\n      jump\t// in\n    tag_71:\n        /* \"#utility.yul\":2003:2122   */\n    tag_70:\n        /* \"#utility.yul\":2161:2162   */\n      0x00\n        /* \"#utility.yul\":2186:2239   */\n      tag_72\n        /* \"#utility.yul\":2231:2238   */\n      dup7\n        /* \"#utility.yul\":2222:2228   */\n      dup3\n        /* \"#utility.yul\":2211:2220   */\n      dup8\n        /* \"#utility.yul\":2207:2229   */\n      add\n        /* \"#utility.yul\":2186:2239   */\n      tag_40\n      jump\t// in\n    tag_72:\n        /* \"#utility.yul\":2176:2239   */\n      swap4\n      pop\n        /* \"#utility.yul\":2132:2249   */\n      pop\n        /* \"#utility.yul\":2288:2290   */\n      0x20\n        /* \"#utility.yul\":2314:2367   */\n      tag_73\n        /* \"#utility.yul\":2359:2366   */\n      dup7\n        /* \"#utility.yul\":2350:2356   */\n      dup3\n        /* \"#utility.yul\":2339:2348   */\n      dup8\n        /* \"#utility.yul\":2335:2357   */\n      add\n        /* \"#utility.yul\":2314:2367   */\n      tag_40\n      jump\t// in\n    tag_73:\n        /* \"#utility.yul\":2304:2367   */\n      swap3\n      pop\n        /* \"#utility.yul\":2259:2377   */\n      pop\n        /* \"#utility.yul\":2416:2418   */\n      0x40\n        /* \"#utility.yul\":2442:2495   */\n      tag_74\n        /* \"#utility.yul\":2487:2494   */\n      dup7\n        /* \"#utility.yul\":2478:2484   */\n      dup3\n        /* \"#utility.yul\":2467:2476   */\n      dup8\n        /* \"#utility.yul\":2463:2485   */\n      add\n        /* \"#utility.yul\":2442:2495   */\n      tag_42\n      jump\t// in\n    tag_74:\n        /* \"#utility.yul\":2432:2495   */\n      swap2\n      pop\n        /* \"#utility.yul\":2387:2505   */\n      pop\n        /* \"#utility.yul\":1893:2512   */\n      swap3\n      pop\n      swap3\n      pop\n      swap3\n      jump\t// out\n        /* \"#utility.yul\":2518:2698   */\n    tag_30:\n        /* \"#utility.yul\":2566:2643   */\n      0x4e487b7100000000000000000000000000000000000000000000000000000000\n        /* \"#utility.yul\":2563:2564   */\n      0x00\n        /* \"#utility.yul\":2556:2644   */\n      mstore\n        /* \"#utility.yul\":2663:2667   */\n      0x51\n        /* \"#utility.yul\":2660:2661   */\n      0x04\n        /* \"#utility.yul\":2653:2668   */\n      mstore\n        /* \"#utility.yul\":2687:2691   */\n      0x24\n        /* \"#utility.yul\":2684:2685   */\n      0x00\n        /* \"#utility.yul\":2677:2692   */\n      revert\n\n    auxdata: 0xa2646970667358221220141980fb2af7ef2655a551632badc6eb39ced612af5f138eeff528bac6665a6f64736f6c634300081e0033\n}\n",
				"bytecode": {
					"linkReferences": {},
					"object": "608060405234801561000f575f5ffd5b503360035f6101000a81548173ffffffffffffffffffffffffffffffffffffffff021916908373ffffffffffffffffffffffffffffffffffffffff16021790555061008060035f9054906101000a900473ffffffffffffffffffffffffffffffffffffffff1661008560201b60201c565b610208565b6101218160405160240161009991906101c2565b6040516020818303038152906040527f2c2ecbc2000000000000000000000000000000000000000000000000000000007bffffffffffffffffffffffffffffffffffffffffffffffffffffffff19166020820180517bffffffffffffffffffffffffffffffffffffffffffffffffffffffff838183161783525050505061012460201b60201c565b50565b6101458161014061014860201b6101a11761016760201b60201c565b60201c565b50565b5f6a636f6e736f6c652e6c6f6790505f5f835160208501845afa505050565b61017960201b61028417819050919050565b6101816101db565b565b5f73ffffffffffffffffffffffffffffffffffffffff82169050919050565b5f6101ac82610183565b9050919050565b6101bc816101a2565b82525050565b5f6020820190506101d55f8301846101b3565b92915050565b7f4e487b71000000000000000000000000000000000000000000000000000000005f52605160045260245ffd5b610425806102155f395ff3fe608060405234801561000f575f5ffd5b5060043610610034575f3560e01c806331d66a83146100385780636410381c14610058575b5f5ffd5b610040610074565b60405161004f939291906102e5565b60405180910390f35b610072600480360381019061006d9190610372565b6100c8565b005b5f5f5f60015f9054906101000a900473ffffffffffffffffffffffffffffffffffffffff1660025f9054906101000a900473ffffffffffffffffffffffffffffffffffffffff165f54925092509250909192565b8260015f6101000a81548173ffffffffffffffffffffffffffffffffffffffff021916908373ffffffffffffffffffffffffffffffffffffffff1602179055508160025f6101000a81548173ffffffffffffffffffffffffffffffffffffffff021916908373ffffffffffffffffffffffffffffffffffffffff160217905550805f8190555061019c60015f9054906101000a900473ffffffffffffffffffffffffffffffffffffffff1660025f9054906101000a900473ffffffffffffffffffffffffffffffffffffffff165f546101c0565b505050565b5f6a636f6e736f6c652e6c6f6790505f5f835160208501845afa505050565b61025a8383836040516024016101d8939291906102e5565b6040516020818303038152906040527f17fe6185000000000000000000000000000000000000000000000000000000007bffffffffffffffffffffffffffffffffffffffffffffffffffffffff19166020820180517bffffffffffffffffffffffffffffffffffffffffffffffffffffffff838183161783525050505061025f565b505050565b6102768161026e6101a1610279565b63ffffffff16565b50565b610284819050919050565b61028c6103c2565b565b5f73ffffffffffffffffffffffffffffffffffffffff82169050919050565b5f6102b78261028e565b9050919050565b6102c7816102ad565b82525050565b5f819050919050565b6102df816102cd565b82525050565b5f6060820190506102f85f8301866102be565b61030560208301856102be565b61031260408301846102d6565b949350505050565b5f5ffd5b610327816102ad565b8114610331575f5ffd5b50565b5f813590506103428161031e565b92915050565b610351816102cd565b811461035b575f5ffd5b50565b5f8135905061036c81610348565b92915050565b5f5f5f606084860312156103895761038861031a565b5b5f61039686828701610334565b93505060206103a786828701610334565b92505060406103b88682870161035e565b9150509250925092565b7f4e487b71000000000000000000000000000000000000000000000000000000005f52605160045260245ffdfea2646970667358221220141980fb2af7ef2655a551632badc6eb39ced612af5f138eeff528bac6665a6f64736f6c634300081e0033",
					"opcodes": "PUSH1 0x80 PUSH1 0x40 MSTORE CALLVALUE DUP1 ISZERO PUSH2 0xF JUMPI PUSH0 PUSH0 REVERT JUMPDEST POP CALLER PUSH1 0x3 PUSH0 PUSH2 0x100 EXP DUP2 SLOAD DUP2 PUSH20 0xFFFFFFFFFFFFFFFFFFFFFFFFFFFFFFFFFFFFFFFF MUL NOT AND SWAP1 DUP4 PUSH20 0xFFFFFFFFFFFFFFFFFFFFFFFFFFFFFFFFFFFFFFFF AND MUL OR SWAP1 SSTORE POP PUSH2 0x80 PUSH1 0x3 PUSH0 SWAP1 SLOAD SWAP1 PUSH2 0x100 EXP SWAP1 DIV PUSH20 0xFFFFFFFFFFFFFFFFFFFFFFFFFFFFFFFFFFFFFFFF AND PUSH2 0x85 PUSH1 0x20 SHL PUSH1 0x20 SHR JUMP JUMPDEST PUSH2 0x208 JUMP JUMPDEST PUSH2 0x121 DUP2 PUSH1 0x40 MLOAD PUSH1 0x24 ADD PUSH2 0x99 SWAP2 SWAP1 PUSH2 0x1C2 JUMP JUMPDEST PUSH1 0x40 MLOAD PUSH1 0x20 DUP2 DUP4 SUB SUB DUP2 MSTORE SWAP1 PUSH1 0x40 MSTORE PUSH32 0x2C2ECBC200000000000000000000000000000000000000000000000000000000 PUSH28 0xFFFFFFFFFFFFFFFFFFFFFFFFFFFFFFFFFFFFFFFFFFFFFFFFFFFFFFFF NOT AND PUSH1 0x20 DUP3 ADD DUP1 MLOAD PUSH28 0xFFFFFFFFFFFFFFFFFFFFFFFFFFFFFFFFFFFFFFFFFFFFFFFFFFFFFFFF DUP4 DUP2 DUP4 AND OR DUP4 MSTORE POP POP POP POP PUSH2 0x124 PUSH1 0x20 SHL PUSH1 0x20 SHR JUMP JUMPDEST POP JUMP JUMPDEST PUSH2 0x145 DUP2 PUSH2 0x140 PUSH2 0x148 PUSH1 0x20 SHL PUSH2 0x1A1 OR PUSH2 0x167 PUSH1 0x20 SHL PUSH1 0x20 SHR JUMP JUMPDEST PUSH1 0x20 SHR JUMP JUMPDEST POP JUMP JUMPDEST PUSH0 PUSH11 0x636F6E736F6C652E6C6F67 SWAP1 POP PUSH0 PUSH0 DUP4 MLOAD PUSH1 0x20 DUP6 ADD DUP5 GAS STATICCALL POP POP POP JUMP JUMPDEST PUSH2 0x179 PUSH1 0x20 SHL PUSH2 0x284 OR DUP2 SWAP1 POP SWAP2 SWAP1 POP JUMP JUMPDEST PUSH2 0x181 PUSH2 0x1DB JUMP JUMPDEST JUMP JUMPDEST PUSH0 PUSH20 0xFFFFFFFFFFFFFFFFFFFFFFFFFFFFFFFFFFFFFFFF DUP3 AND SWAP1 POP SWAP2 SWAP1 POP JUMP JUMPDEST PUSH0 PUSH2 0x1AC DUP3 PUSH2 0x183 JUMP JUMPDEST SWAP1 POP SWAP2 SWAP1 POP JUMP JUMPDEST PUSH2 0x1BC DUP2 PUSH2 0x1A2 JUMP JUMPDEST DUP3 MSTORE POP POP JUMP JUMPDEST PUSH0 PUSH1 0x20 DUP3 ADD SWAP1 POP PUSH2 0x1D5 PUSH0 DUP4 ADD DUP5 PUSH2 0x1B3 JUMP JUMPDEST SWAP3 SWAP2 POP POP JUMP JUMPDEST PUSH32 0x4E487B7100000000000000000000000000000000000000000000000000000000 PUSH0 MSTORE PUSH1 0x51 PUSH1 0x4 MSTORE PUSH1 0x24 PUSH0 REVERT JUMPDEST PUSH2 0x425 DUP1 PUSH2 0x215 PUSH0 CODECOPY PUSH0 RETURN INVALID PUSH1 0x80 PUSH1 0x40 MSTORE CALLVALUE DUP1 ISZERO PUSH2 0xF JUMPI PUSH0 PUSH0 REVERT JUMPDEST POP PUSH1 0x4 CALLDATASIZE LT PUSH2 0x34 JUMPI PUSH0 CALLDATALOAD PUSH1 0xE0 SHR DUP1 PUSH4 0x31D66A83 EQ PUSH2 0x38 JUMPI DUP1 PUSH4 0x6410381C EQ PUSH2 0x58 JUMPI JUMPDEST PUSH0 PUSH0 REVERT JUMPDEST PUSH2 0x40 PUSH2 0x74 JUMP JUMPDEST PUSH1 0x40 MLOAD PUSH2 0x4F SWAP4 SWAP3 SWAP2 SWAP1 PUSH2 0x2E5 JUMP JUMPDEST PUSH1 0x40 MLOAD DUP1 SWAP2 SUB SWAP1 RETURN JUMPDEST PUSH2 0x72 PUSH1 0x4 DUP1 CALLDATASIZE SUB DUP2 ADD SWAP1 PUSH2 0x6D SWAP2 SWAP1 PUSH2 0x372 JUMP JUMPDEST PUSH2 0xC8 JUMP JUMPDEST STOP JUMPDEST PUSH0 PUSH0 PUSH0 PUSH1 0x1 PUSH0 SWAP1 SLOAD SWAP1 PUSH2 0x100 EXP SWAP1 DIV PUSH20 0xFFFFFFFFFFFFFFFFFFFFFFFFFFFFFFFFFFFFFFFF AND PUSH1 0x2 PUSH0 SWAP1 SLOAD SWAP1 PUSH2 0x100 EXP SWAP1 DIV PUSH20 0xFFFFFFFFFFFFFFFFFFFFFFFFFFFFFFFFFFFFFFFF AND PUSH0 SLOAD SWAP3 POP SWAP3 POP SWAP3 POP SWAP1 SWAP2 SWAP3 JUMP JUMPDEST DUP3 PUSH1 0x1 PUSH0 PUSH2 0x100 EXP DUP2 SLOAD DUP2 PUSH20 0xFFFFFFFFFFFFFFFFFFFFFFFFFFFFFFFFFFFFFFFF MUL NOT AND SWAP1 DUP4 PUSH20 0xFFFFFFFFFFFFFFFFFFFFFFFFFFFFFFFFFFFFFFFF AND MUL OR SWAP1 SSTORE POP DUP2 PUSH1 0x2 PUSH0 PUSH2 0x100 EXP DUP2 SLOAD DUP2 PUSH20 0xFFFFFFFFFFFFFFFFFFFFFFFFFFFFFFFFFFFFFFFF MUL NOT AND SWAP1 DUP4 PUSH20 0xFFFFFFFFFFFFFFFFFFFFFFFFFFFFFFFFFFFFFFFF AND MUL OR SWAP1 SSTORE POP DUP1 PUSH0 DUP2 SWAP1 SSTORE POP PUSH2 0x19C PUSH1 0x1 PUSH0 SWAP1 SLOAD SWAP1 PUSH2 0x100 EXP SWAP1 DIV PUSH20 0xFFFFFFFFFFFFFFFFFFFFFFFFFFFFFFFFFFFFFFFF AND PUSH1 0x2 PUSH0 SWAP1 SLOAD SWAP1 PUSH2 0x100 EXP SWAP1 DIV PUSH20 0xFFFFFFFFFFFFFFFFFFFFFFFFFFFFFFFFFFFFFFFF AND PUSH0 SLOAD PUSH2 0x1C0 JUMP JUMPDEST POP POP POP JUMP JUMPDEST PUSH0 PUSH11 0x636F6E736F6C652E6C6F67 SWAP1 POP PUSH0 PUSH0 DUP4 MLOAD PUSH1 0x20 DUP6 ADD DUP5 GAS STATICCALL POP POP POP JUMP JUMPDEST PUSH2 0x25A DUP4 DUP4 DUP4 PUSH1 0x40 MLOAD PUSH1 0x24 ADD PUSH2 0x1D8 SWAP4 SWAP3 SWAP2 SWAP1 PUSH2 0x2E5 JUMP JUMPDEST PUSH1 0x40 MLOAD PUSH1 0x20 DUP2 DUP4 SUB SUB DUP2 MSTORE SWAP1 PUSH1 0x40 MSTORE PUSH32 0x17FE618500000000000000000000000000000000000000000000000000000000 PUSH28 0xFFFFFFFFFFFFFFFFFFFFFFFFFFFFFFFFFFFFFFFFFFFFFFFFFFFFFFFF NOT AND PUSH1 0x20 DUP3 ADD DUP1 MLOAD PUSH28 0xFFFFFFFFFFFFFFFFFFFFFFFFFFFFFFFFFFFFFFFFFFFFFFFFFFFFFFFF DUP4 DUP2 DUP4 AND OR DUP4 MSTORE POP POP POP POP PUSH2 0x25F JUMP JUMPDEST POP POP POP JUMP JUMPDEST PUSH2 0x276 DUP2 PUSH2 0x26E PUSH2 0x1A1 PUSH2 0x279 JUMP JUMPDEST PUSH4 0xFFFFFFFF AND JUMP JUMPDEST POP JUMP JUMPDEST PUSH2 0x284 DUP2 SWAP1 POP SWAP2 SWAP1 POP JUMP JUMPDEST PUSH2 0x28C PUSH2 0x3C2 JUMP JUMPDEST JUMP JUMPDEST PUSH0 PUSH20 0xFFFFFFFFFFFFFFFFFFFFFFFFFFFFFFFFFFFFFFFF DUP3 AND SWAP1 POP SWAP2 SWAP1 POP JUMP JUMPDEST PUSH0 PUSH2 0x2B7 DUP3 PUSH2 0x28E JUMP JUMPDEST SWAP1 POP SWAP2 SWAP1 POP JUMP JUMPDEST PUSH2 0x2C7 DUP2 PUSH2 0x2AD JUMP JUMPDEST DUP3 MSTORE POP POP JUMP JUMPDEST PUSH0 DUP2 SWAP1 POP SWAP2 SWAP1 POP JUMP JUMPDEST PUSH2 0x2DF DUP2 PUSH2 0x2CD JUMP JUMPDEST DUP3 MSTORE POP POP JUMP JUMPDEST PUSH0 PUSH1 0x60 DUP3 ADD SWAP1 POP PUSH2 0x2F8 PUSH0 DUP4 ADD DUP7 PUSH2 0x2BE JUMP JUMPDEST PUSH2 0x305 PUSH1 0x20 DUP4 ADD DUP6 PUSH2 0x2BE JUMP JUMPDEST PUSH2 0x312 PUSH1 0x40 DUP4 ADD DUP5 PUSH2 0x2D6 JUMP JUMPDEST SWAP5 SWAP4 POP POP POP POP JUMP JUMPDEST PUSH0 PUSH0 REVERT JUMPDEST PUSH2 0x327 DUP2 PUSH2 0x2AD JUMP JUMPDEST DUP2 EQ PUSH2 0x331 JUMPI PUSH0 PUSH0 REVERT JUMPDEST POP JUMP JUMPDEST PUSH0 DUP2 CALLDATALOAD SWAP1 POP PUSH2 0x342 DUP2 PUSH2 0x31E JUMP JUMPDEST SWAP3 SWAP2 POP POP JUMP JUMPDEST PUSH2 0x351 DUP2 PUSH2 0x2CD JUMP JUMPDEST DUP2 EQ PUSH2 0x35B JUMPI PUSH0 PUSH0 REVERT JUMPDEST POP JUMP JUMPDEST PUSH0 DUP2 CALLDATALOAD SWAP1 POP PUSH2 0x36C DUP2 PUSH2 0x348 JUMP JUMPDEST SWAP3 SWAP2 POP POP JUMP JUMPDEST PUSH0 PUSH0 PUSH0 PUSH1 0x60 DUP5 DUP7 SUB SLT ISZERO PUSH2 0x389 JUMPI PUSH2 0x388 PUSH2 0x31A JUMP JUMPDEST JUMPDEST PUSH0 PUSH2 0x396 DUP7 DUP3 DUP8 ADD PUSH2 0x334 JUMP JUMPDEST SWAP4 POP POP PUSH1 0x20 PUSH2 0x3A7 DUP7 DUP3 DUP8 ADD PUSH2 0x334 JUMP JUMPDEST SWAP3 POP POP PUSH1 0x40 PUSH2 0x3B8 DUP7 DUP3 DUP8 ADD PUSH2 0x35E JUMP JUMPDEST SWAP2 POP POP SWAP3 POP SWAP3 POP SWAP3 JUMP JUMPDEST PUSH32 0x4E487B7100000000000000000000000000000000000000000000000000000000 PUSH0 MSTORE PUSH1 0x51 PUSH1 0x4 MSTORE PUSH1 0x24 PUSH0 REVERT INVALID LOG2 PUSH5 0x6970667358 0x22 SLT KECCAK256 EQ NOT DUP1 EXTSTATICCALL 0x2A 0xF7 0xEF 0x26 SSTORE 0xA5 MLOAD PUSH4 0x2BADC6EB CODECOPY 0xCE 0xD6 SLT 0xAF PUSH0 SGT DUP15 0xEF CREATE2 0x28 0xBA 0xC6 PUSH7 0x5A6F64736F6C63 NUMBER STOP ADDMOD 0x1E STOP CALLER "
				},
				"gasEstimates": {
					"creation": {
						"codeDepositCost": "212200",
						"executionCost": "infinite",
						"totalCost": "infinite"
					},
					"external": {
						"transferMoney(address,address,uint256)": "infinite",
						"view_money()": "infinite"
					}
				},
				"methodIdentifiers": {
					"transferMoney(address,address,uint256)": "6410381c",
					"view_money()": "31d66a83"
				}
			},
			"storageLayout": {
				"storage": [
					{
						"astId": 4,
						"contract": "contracts/w1_paynow.sol:Weixin",
						"label": "amount",
						"offset": 0,
						"slot": "0",
						"type": "t_uint256"
					},
					{
						"astId": 6,
						"contract": "contracts/w1_paynow.sol:Weixin",
						"label": "sender",
						"offset": 0,
						"slot": "1",
						"type": "t_address"
					},
					{
						"astId": 8,
						"contract": "contracts/w1_paynow.sol:Weixin",
						"label": "receiver",
						"offset": 0,
						"slot": "2",
						"type": "t_address"
					},
					{
						"astId": 10,
						"contract": "contracts/w1_paynow.sol:Weixin",
						"label": "owner",
						"offset": 0,
						"slot": "3",
						"type": "t_address"
					}
				],
				"types": {
					"t_address": {
						"encoding": "inplace",
						"label": "address",
						"numberOfBytes": "20"
					},
					"t_uint256": {
						"encoding": "inplace",
						"label": "uint256",
						"numberOfBytes": "32"
					}
				}
			},
			"userdoc": {
				"kind": "user",
				"methods": {},
				"version": 1
			}
		}
	}
}